:020000040800F2
:10000000784E00204501000899270008C123000808
:1000100095270008911B00088F4C00080000000085
:10002000000000000000000000000000B1420008D5
:10003000951B00080000000099390008DD46000803
:100040005F0100085F0100085F0100085F01000810
:100050005F0100085F0100085F0100085F01000800
:100060005F0100085F0100085F0100085F010008F0
:100070005F0100085F0100085F0100085F010008E0
:100080005F0100085F0100085F0100085F010008D0
:100090005F0100085F0100085F0100085F010008C0
:1000A0005F0100085F0100085F0100085F010008B0
:1000B0006D470008894700085F0100085F010008DC
:1000C0005F0100085F0100085F0100085F01000890
:1000D0005F0100081D4A00081F4A0008214A000865
:1000E0005F0100085F0100085F0100085F01000870
:1000F0005F0100085F0100085F0100085F01000860
:100100005F0100085F0100085F0100085F0100084F
:100110005F0100085F0100085F0100085F0100083F
:100120005F0100085F0100085F0100085F0100082F
:10013000DFF80CD000F056FA00480047416500088F
:10014000784E00200648804706480047FEE7FEE755
:10015000FEE7FEE7FEE7FEE7FEE7FEE7FEE7FEE777
:100160000D470008310100080649074A0868504356
:1001700043F23902104408604008704701490860A2
:1001800070470000500100206D4EC64140EA010357
:100190009B0703D009E008C9121F08C0042AFAD23D
:1001A00003E011F8013B00F8013B521EF9D2704701
:1001B000D2B201E000F8012B491EFBD270470022A9
:1001C000F6E710B513460A4604461946FFF7F0FF56
:1001D000204610BD30B504460020034600E05B1CFD
:1001E000934203D2E05CCD5C401BF8D030BD30B50B
:1001F0000B46014600202022012409E021FA02F5E5
:100200009D4205D303FA02F5491B04FA02F528447E
:10021000151EA2F10102F1DC30BD2DE9F05F0546AB
:10022000002092469B4688460646814640241BE0B5
:10023000284641464746224600F0F5F953465A46BD
:10024000C01A914110D311461846224600F0DCF93D
:100250002D1A67EB01084F4622460120002100F0CD
:10026000D3F917EB00094E41201EA4F10104DFDC95
:10027000484631462A464346BDE8F09F2DE9FE4FE9
:10028000804681EA0300C00F0C46009021F0004137
:1002900023F00045B8EB0200A94105D240462146B3
:1002A00090461C460B46024623F00040104304D102
:1002B0004046214603B0BDE8F08F270DC7F30A0082
:1002C000C3F30A510290401A0190402866DAC3F342
:1002D000130040F4801B0098924620B10023D2EB1B
:1002E000030A63EB0B0B01985946C0F140025046DC
:1002F00000F08AF906460D4650465946019A00F02C
:10030000A2F910EB08006141002487EA115284EA47
:10031000E7731A433BD0009A3AB3019A012A4FEA95
:10032000075210DC001B61EB02014FF0004202EAB1
:100330000752CDE90042001C41F5801132462B46A0
:1003400000F0A0F9B6E7001B61EB0201001C41F5CB
:10035000801300185B412018A2F5001747EB03013A
:1003600040EAD570B6196D4111E06D084FEA3606C6
:1003700045EAC0754FEA0752001B61EB0201001C01
:1003800041F5801149084FEA3000001951413246C9
:100390002B4603B0BDE8F04F00F067B9009801228A
:1003A00040000023D0EB020263EBE073009821468B
:1003B0004FEAE074B8EB000061EB0401E9E783F079
:1003C00000435BE781F0004158E72DE9FE4F81EAE9
:1003D000030404F0004421F0004100944FF0000BAE
:1003E00023F0004350EA010402D052EA030404D18E
:1003F0000020014603B0BDE8F08FC3F30A54C1F3F7
:100400000A552C44A4F2F3340194A0FB0254C1F326
:10041000130141F48011C3F3130343F4801301FB70
:10042000024400FB034E840A970A44EA815447EAD7
:100430008357A4FB076802958D0A05FB07854FEAE1
:10044000932C04FB0C542705029D4FEA065847EAFB
:100450001637B5EB08056EEB070C870E920E47EAD0
:10046000811742EA8312A7FB0201B6EB0B0164EB92
:1004700000042B0D43EA0C335E1844EB1C50DA46A3
:100480005146E7FB0201C5F313044FEA0B3343EA7D
:1004900014534FEA0432019C43EA0603A4F10C040E
:1004A0000294009CCDE900B400F0ECF8A2E72DE93D
:1004B000F04D81EA030404F0004B21F0004514469E
:1004C0004FF0000A23F0004150EA050220D054EA20
:1004D00001021DD0C5F30A570246C5F31303C1F349
:1004E0001300C1F30A5640F4801543F48013A7EBC0
:1004F0000608101BD64608F2FD3873EB050002D340
:1005000008F1010801E092185B41B8F1000F03DA2D
:1005100000200146BDE8F08D00204FF48011064612
:1005200084460EE0171B73EB050705D3121B63EB24
:10053000050306434CEA010C49084FEA30009218C3
:100540005B4150EA0107EDD152EA030012D082EA82
:10055000040083EA0501084303D100224FF0004361
:1005600008E0101BAB4102D20122002302E06FF031
:10057000010253101AEB06004CEB085110EB0A0075
:1005800041EB0B01BDE8F04D00F06FB8C1F30A522A
:10059000C1F3130140F2FF3341F480119A4202DAB1
:1005A00000200146704740F233439A42A2F23342A0
:1005B00002DC524200F037B800F026B830B500290E
:1005C00004DB4FF00044404264EB0101002B04DBEC
:1005D0004FF00044524264EB0303994208BF90423B
:1005E00030BD0000064C074D06E0E06840F0010316
:1005F00094E8070098471034AC42F6D3FFF79CFD0F
:1006000010B9000830B90008202A04DB203A00FAAB
:1006100002F1002070479140C2F1200320FA03F359
:10062000194390407047202A04DB203A21FA02F057
:100630000021704721FA02F3D040C2F1200291401C
:10064000084319467047202A06DBCB17203A41FAA7
:1006500002F043EAE07306E041FA02F3D040C2F14F
:100660002002914008431946704710B5002B08DA64
:10067000401C41F1000192185B411A4301D120F066
:10068000010010BD2DE9F04D92469B4611B1B1FA23
:1006900081F202E0B0FA80F220329046FFF7B4FF18
:1006A00004460F4640EA0A0041EA0B0153465A4607
:1006B000084303D120463946BDE8F08D114653EA80
:1006C000010015D0C8F140025046FFF7ACFF0546C7
:1006D0000E46504659464246FFF796FF084301D062
:1006E000012000E00020054346EAE0762C43374332
:1006F0000A984FEA4453A0EB08004FEAD4240A308A
:100700004FF0000244EA47544FEAD72502D50020B3
:100710000146D1E7010510196941DDE908450019D5
:100720006941BDE8F04DA0E770B501EB020410F897
:10073000015B15F0070301D110F8013B2A1106D126
:1007400010F8012B03E010F8016B01F8016B5B1E40
:10075000F9D12B0705D40023521E0FD401F8013B19
:10076000FAE710F8013B02F10202A1EB030303E0F8
:1007700013F8015B01F8015B521EF9D5A142D6D3F3
:10078000002070BD70472DE9F84F07468846914616
:100790001E46DDE90B4B00250020009082462546D1
:1007A000AF7085F8018028706B4604F10802E91CDF
:1007B0000A9800F02AF804F10801BDF80020881812
:1007C00032464946FFF7E2FCBDF800003044C0F372
:1007D0000720BDF80010314440EA0120A880BDF890
:1007E0000000311804F1080005F081FC82464FEA50
:1007F0001A20A87185F807A006F10800BDF80010BE
:100800000844ABF80000BDE8F88F2DE9F047064634
:10081000894614469A464FF000080027AAF800704F
:1008200089F800800EB9BDE8F0872546306888B1A8
:10083000002028804FF4C05068801822281D31689D
:10084000FFF7A4FC08F1010000F0FF0807F11C000D
:10085000C7B2E519706880B125464FF480702880D2
:100860008000688070680068686008F1010000F02E
:10087000FF0807F10800C7B2E519AAF8007089F867
:10088000008000BFCFE7000000B5BDB0242216A154
:1008900008A8FFF77BFC14221CA103A8FFF776FC35
:1008A000002011901290139014901D482D90122248
:1008B00003A92EA8FFF76AFC242208A933A8FFF792
:1008C00065FC3CA817490022AC23CDE90021029029
:1008D00011AA00210620FFF756FFBDF8F0101148BD
:1008E00000F014F93DB000BDB8D935E4D6D8F2D641
:1008F000C8282F9FD96248C796A9ED5B5A1A955907
:10090000D23CBB5F1B03073F010001007465737499
:100910002E61626C65636C6F75642E636E000000FF
:10092000C0A8C7724845002070B504460D4616465B
:10093000A078442805D132462946204600F004F824
:1009400000BF00BF70BD000070B586B005460E4602
:10095000144610A103C9CDE90301207810B1012884
:1009600015D100E000BF2078FFF70CFF05A80B4968
:10097000CDE9006102906978062303AA6620FFF79B
:1009800002FFBDF81410054800F0C0F800BF00BF1A
:1009900006B070BD68656C6C6F00000048450020B3
:1009A00070B504460D461646A078012806D00228E8
:1009B0000BD0042810D0052818D112E0FFF764FFEF
:1009C0000121084600F0AAF810E0094809490CC8BE
:1009D000094800F073F809E00121002000F09EF8BA
:1009E00004E00021084600F099F800BF00BF70BD88
:1009F00038010020C4000020C0000020F0B50346EC
:100A00000825581900261680002424E006783602AE
:100A1000078846EA27263604360C02D0012E06D176
:100A200002E0061D0E6002E0061D4E6000BF00BF22
:100A300086783602478846EA2726361D17883E44C0
:100A4000168086783602478846EA2726B7B2061D02
:100A5000B819661CF4B2DE78A642D7DCF0BD3EB50C
:100A60000446002000900025029001906A4601A9EA
:100A70002046FFF7C3FFBDF80000204400F1080541
:100A8000A07806280ED2DFE800F00D030405060763
:100A900000BF00BF00BF00BF2A4601A92046FFF7E4
:100AA0007FFF08E0A078402804DB2A4601A9204601
:100AB000FFF73AFF00BF00BF3EBD00007FB5A8B002
:100AC00004460D4600208DF8100020680590702225
:100AD000294606A8FFF75AFB04A8DDE92A12C0E957
:100AE0001E1203A8084900229023CDE9002102909C
:100AF00004AA00213F20FFF746FEBDF80C10024873
:100B000000F004F82CB070BDB43A002070B5044673
:100B10000D462946204604F0BDFB70BD10B10128EA
:100B200006D102E0034A116002E0034A116000BFEF
:100B300000BF7047B8000020BC0000202DE9F04F36
:100B4000C1B007460C4615461E46DDF82CB1DDF84F
:100B500034A1DDF83091DDF82881F10004AA28469F
:100B600000F0C0FD002004A953462246CDE900183C
:100B700002904946384600F025F841B0BDE8F08FB4
:100B80002DE9F04FC1B007460C4615461E46DDF86C
:100B90002CB1DDF834A1DDF83091DDF82881F100C9
:100BA00004AA284600F08EFE012004A953462246DE
:100BB000CDE9001802904946384600F003F841B0EC
:100BC000BDE8F08F2DE9F04F89B007460D469046FD
:100BD0009A464646102201A81399FFF7D7FA0DF15D
:100BE00004091498012850D112E0002405E0385D72
:100BF00019F8041048402855641C102CF7D32946D6
:100C00002846129A00F01EFBA946103E10371035F8
:100C1000102EEAD206B3C6F1100B002405E0385DB1
:100C200019F8041048402855641CB442F7D33446E0
:100C300005E019F8040080EA0B002855641C102C0C
:100C4000F7D329462846129A00F0FCFAA94608EB89
:100C50000B00CAF80000A1E0002EFCD14FF0100BF1
:100C6000002405E019F8040080EA0B002855641CF4
:100C7000102CF7D329462846129A00F0E3FAA94629
:100C800008EB0B00CAF8000088E0AF4237D012E052
:100C900029463846129A00F085F8002405E0285DC0
:100CA00019F8041048402855641C102CF7D3B94695
:100CB000103E10371035102EEAD2BEB105A93846C5
:100CC000129A00F06FF8002406E005A8005D19F8FC
:100CD000041048402855641CB442F6D3B946701E2F
:100CE000285CA8EB0000CAF8000057E0002E55D1A0
:100CF00015F8010CA8EB0000CAF800004EE01BE05C
:100D00001022394605A8FFF741FA29463846129ABB
:100D100000F048F8002405E0295D1398005D41408B
:100D20002955641C102CF7D3102205A91398FFF73E
:100D30002DFA103E10371035102EE1D23EB310229E
:100D4000394605A8FFF722FA294605A8129A00F0AD
:100D500029F8002405E0285D1399095D48402855CD
:100D6000641CB442F7D3344603E005A8005D28555F
:100D7000641C102CF9D3102205A91398FFF706FA6A
:100D8000701E285CA8EB0000CAF8000006E02EB92F
:100D900015F8010CA8EB0000CAF8000009B0BDE886
:100DA000F08F00002DE9F74F81B00346039893F8C8
:100DB00000A04FEA0A6A93F801B08AEA0B4A93F856
:100DC00002B08AEA0B2A93F803B08AEA0B0AD0F839
:100DD00000B08AEA0B0793F804A04FEA0A6B93F875
:100DE00005A08BEA0A4B93F806A08BEA0A2A93F82F
:100DF00007B08AEA0B0AD0F804B08AEA0B0C93F821
:100E000008A04FEA0A6B93F809A08BEA0A4B93F803
:100E10000AA08BEA0A2A93F80BB08AEA0B0AD0F8E8
:100E200008B08AEA0B0893F80CA04FEA0A6B93F813
:100E30000DA08BEA0A4B93F80EA08BEA0A2A93F8CE
:100E40000FB08AEA0B0AD0F80CB08AEA0B090398B3
:100E5000D0F8F0A04FEA6A0ACDF800A000BF4FEA30
:100E6000176ADFF8CCB35BF82AA0DFF8C8B3C9F380
:100E7000074E5BF82EB08AEA0B0ADFF8BCB3C8F362
:100E8000072E5BF82EB08AEA0B0A0CF0FF0BDFF896
:100E9000ACE35EF82BB08AEA0B0AD0F810B08AEA0D
:100EA0000B024FEA1C6ADFF888B35BF82AA0DFF870
:100EB00084B3C7F3074E5BF82EB08AEA0B0ADFF85B
:100EC00078B3C9F3072E5BF82EB08AEA0B0A08F054
:100ED000FF0BDFF868E35EF82BB08AEA0B0AD0F864
:100EE00014B08AEA0B044FEA186ADFF844B35BF8DF
:100EF0002AA0DFF840B3CCF3074E5BF82EB08AEAA5
:100F00000B0ADFF834B3C7F3072E5BF82EB08AEA7A
:100F10000B0A09F0FF0BDFF824E35EF82BB08AEA36
:100F20000B0AD0F818B08AEA0B054FEA196ADFF805
:100F300000B35BF82AA0DFF8FCB2C8F3074E5BF8F9
:100F40002EB08AEA0B0ADFF8F0B2CCF3072E5BF87A
:100F50002EB08AEA0B0A07F0FF0BDFF8E0E25EF83A
:100F60002BB08AEA0B0AD0F81CB08AEA0B062030B4
:100F7000DDF800A0BAF1010ACDF800A000D188E0A8
:100F80004FEA126ADFF8A8B25BF82AA0DFF8A4B231
:100F9000C6F3074E5BF82EB08AEA0B0ADFF898B268
:100FA000C5F3072E5BF82EB08AEA0B0A04F0FF0B9C
:100FB000DFF888E25EF82BB08AEA0B0AD0F800B0BE
:100FC0008AEA0B074FEA146ADFF864B25BF82AA0DA
:100FD000DFF860B2C2F3074E5BF82EB08AEA0B0A64
:100FE000DFF854B2C6F3072E5BF82EB08AEA0B0A7C
:100FF00005F0FF0BDFF844E25EF82BB08AEA0B0A3B
:10100000D0F804B08AEA0B0C4FEA156ADFF820B278
:101010005BF82AA0DFF81CB2C4F3074E5BF82EB0D1
:101020008AEA0B0ADFF810B2C2F3072E5BF82EB083
:101030008AEA0B0A06F0FF0BDFF800E25EF82BB03D
:101040008AEA0B0AD0F808B08AEA0B084FEA166A57
:10105000DFF8DCB15BF82AA0DFF8D8B1C5F3074EA2
:101060005BF82EB08AEA0B0ADFF8CCB1C4F3072E86
:101070005BF82EB08AEA0B0A02F0FF0BDFF8BCE146
:101080005EF82BB08AEA0B0AD0F80CB08AEA0B099A
:10109000E5E600BF4FEA126ADFF8A4B15BF82AA0C8
:1010A0000AF07F4AC6F3074E5BF82EB00BF47F0BB5
:1010B0008AEA0B0ADFF888B1C5F3072E3BF82EB099
:1010C0000BF47F4B8AEA0B0A04F0FF0BDFF870E1A8
:1010D0001EF82BB08AEA0B0AD0F800B08AEA0B0798
:1010E0004FEA176A81F800A04FEA174A81F801A079
:1010F0004FEA172A81F802A0CF704FEA146AF3462C
:101100005BF82AA00AF07F4AC2F3074E5BF82EB0C4
:101110000BF47F0B8AEA0B0ADFF824B1C6F3072E23
:101120003BF82EB00BF47F4B8AEA0B0A05F0FF0B5D
:10113000DFF80CE11EF82BB08AEA0B0AD0F804B0F5
:101140008AEA0B0C4FEA1C6A81F804A04FEA1C4B98
:1011500081F805B04FEA1C2B81F806B081F807C072
:101160004FEA156AF3465BF82AA00AF07F4AC4F3F7
:10117000074E5BF82EB00BF47F0B8AEA0B0ADFF800
:10118000C0B0C2F3072E3BF82EB00BF47F4B8AEAB7
:101190000B0A06F0FF0BDFF8A8E01EF82BB08AEA76
:1011A0000B0AD0F808B08AEA0B084FEA186A81F8EF
:1011B00008A04FEA184B81F809B04FEA182B81F8C4
:1011C0000AB081F80B804FEA166AF3465BF82AA052
:1011D0000AF07F4AC5F3074E5BF82EB00BF47F0B85
:1011E0008AEA0B0ADFF858B0C4F3072E3BF82EB09A
:1011F0000BF47F4B8AEA0B0A02F0FF0BDFF840E0AA
:101200001EF82BB08AEA0B0AD0F80CB08AEA0B0958
:101210004FEA196A81F80CA04FEA194B81F80DB01A
:101220004FEA192B81F80EB081F80F90BDE8FF8FBF
:10123000E8A40008E8A80008E8AC0008E8B0000846
:10124000E8B400082DE9F74F81B00346039893F8FE
:1012500000A04FEA0A6A93F801B08AEA0B4A93F8B1
:1012600002B08AEA0B2A93F803B08AEA0B0AD0F894
:1012700000B08AEA0B0793F804A04FEA0A6B93F8D0
:1012800005A08BEA0A4B93F806A08BEA0A2A93F88A
:1012900007B08AEA0B0AD0F804B08AEA0B0C93F87C
:1012A00008A04FEA0A6B93F809A08BEA0A4B93F85F
:1012B0000AA08BEA0A2A93F80BB08AEA0B0AD0F844
:1012C00008B08AEA0B0893F80CA04FEA0A6B93F86F
:1012D0000DA08BEA0A4B93F80EA08BEA0A2A93F82A
:1012E0000FB08AEA0B0AD0F80CB08AEA0B0903980F
:1012F000D0F8F0A04FEA6A0ACDF800A000BF4FEA8C
:10130000176ADFF8CCB35BF82AA0DFF8C8B3CCF3D8
:10131000074E5BF82EB08AEA0B0ADFF8BCB3C8F3BD
:10132000072E5BF82EB08AEA0B0A09F0FF0BDFF8F4
:10133000ACE35EF82BB08AEA0B0AD0F810B08AEA68
:101340000B024FEA1C6ADFF888B35BF82AA0DFF8CB
:1013500084B3C8F3074E5BF82EB08AEA0B0ADFF8B5
:1013600078B3C9F3072E5BF82EB08AEA0B0A07F0B0
:10137000FF0BDFF868E35EF82BB08AEA0B0AD0F8BF
:1013800014B08AEA0B044FEA186ADFF844B35BF83A
:101390002AA0DFF840B3C9F3074E5BF82EB08AEA03
:1013A0000B0ADFF834B3C7F3072E5BF82EB08AEAD6
:1013B0000B0A0CF0FF0BDFF824E35EF82BB08AEA8F
:1013C0000B0AD0F818B08AEA0B054FEA196ADFF861
:1013D00000B35BF82AA0DFF8FCB2C7F3074E5BF856
:1013E0002EB08AEA0B0ADFF8F0B2CCF3072E5BF8D6
:1013F0002EB08AEA0B0A08F0FF0BDFF8E0E25EF895
:101400002BB08AEA0B0AD0F81CB08AEA0B0620300F
:10141000DDF800A0BAF1010ACDF800A000D188E003
:101420004FEA126ADFF8A8B25BF82AA0DFF8A4B28C
:10143000C4F3074E5BF82EB08AEA0B0ADFF898B2C5
:10144000C5F3072E5BF82EB08AEA0B0A06F0FF0BF5
:10145000DFF888E25EF82BB08AEA0B0AD0F800B019
:101460008AEA0B074FEA146ADFF864B25BF82AA035
:10147000DFF860B2C5F3074E5BF82EB08AEA0B0ABC
:10148000DFF854B2C6F3072E5BF82EB08AEA0B0AD7
:1014900002F0FF0BDFF844E25EF82BB08AEA0B0A99
:1014A000D0F804B08AEA0B0C4FEA156ADFF820B2D4
:1014B0005BF82AA0DFF81CB2C6F3074E5BF82EB02B
:1014C0008AEA0B0ADFF810B2C2F3072E5BF82EB0DF
:1014D0008AEA0B0A04F0FF0BDFF800E25EF82BB09B
:1014E0008AEA0B0AD0F808B08AEA0B084FEA166AB3
:1014F000DFF8DCB15BF82AA0DFF8D8B1C2F3074E01
:101500005BF82EB08AEA0B0ADFF8CCB1C4F3072EE1
:101510005BF82EB08AEA0B0A05F0FF0BDFF8BCE19E
:101520005EF82BB08AEA0B0AD0F80CB08AEA0B09F5
:10153000E5E600BF4FEA126ADFF8A4B15BF82AA023
:101540000AF07F4AC4F3074E5BF82EB00BF47F0B12
:101550008AEA0B0ADFF888B1C5F3072E3BF82EB0F4
:101560000BF47F4B8AEA0B0A06F0FF0BDFF870E101
:101570001EF82BB08AEA0B0AD0F800B08AEA0B07F3
:101580004FEA176A81F800A04FEA174A81F801A0D4
:101590004FEA172A81F802A0CF704FEA146AF34687
:1015A0005BF82AA00AF07F4AC5F3074E5BF82EB01D
:1015B0000BF47F0B8AEA0B0ADFF824B1C6F3072E7F
:1015C0003BF82EB00BF47F4B8AEA0B0A02F0FF0BBC
:1015D000DFF80CE11EF82BB08AEA0B0AD0F804B051
:1015E0008AEA0B0C4FEA1C6A81F804A04FEA1C4BF4
:1015F00081F805B04FEA1C2B81F806B081F807C0CE
:101600004FEA156AF3465BF82AA00AF07F4AC6F350
:10161000074E5BF82EB00BF47F0B8AEA0B0ADFF85B
:10162000C0B0C2F3072E3BF82EB00BF47F4B8AEA12
:101630000B0A04F0FF0BDFF8A8E01EF82BB08AEAD3
:101640000B0AD0F808B08AEA0B084FEA186A81F84A
:1016500008A04FEA184B81F809B04FEA182B81F81F
:101660000AB081F80B804FEA166AF3465BF82AA0AD
:101670000AF07F4AC2F3074E5BF82EB00BF47F0BE3
:101680008AEA0B0ADFF858B0C4F3072E3BF82EB0F5
:101690000BF47F4B8AEA0B0A05F0FF0BDFF840E002
:1016A0001EF82BB08AEA0B0AD0F80CB08AEA0B09B4
:1016B0004FEA196A81F80CA04FEA194B81F80DB076
:1016C0004FEA192B81F80EB081F80F90BDE8FF8F1B
:1016D000E8900008E8940008E8980008E89C0008F2
:1016E000E8A000082DE9F04F82468B4617463A469F
:1016F0005946504600F0E6F88146B9F1000F02DA8B
:101700004846BDE8F08F3C460025D7F8F00086003B
:101710002DE054F8258054F8260044F8250044F8BC
:101720002680681C54F82080701C54F82010681C17
:1017300044F82010701C44F82080A81C54F8208025
:10174000B01C54F82010A81C44F82010B01C44F819
:101750002080E81C54F82080F01C54F82010E81C6D
:1017600044F82010F01C44F820802D1D361FB5428F
:10177000CFDB012595E010342068000E4C4911F8AC
:1017800020004C4951F820002168C1F30741484A24
:1017900012F82110484A52F8211048402188C1F31C
:1017A0000721434A12F82110444A52F821104840B8
:1017B00021783F4A12F82110414A52F8211048403E
:1017C00020606068000E3A4911F82000394951F84C
:1017D00020006168C1F30741354A12F82110364AEA
:1017E00052F821104840A188C1F30721304A12F86D
:1017F0002110324A52F82110484021792C4A12F81F
:1018000021102F4A52F8211048406060A068000E55
:10181000274911F82000274951F82000A168C1F399
:101820000741234A12F82110234A52F82110484058
:101830002189C1F307211E4A12F821101F4A52F8CC
:1018400021104840217A1A4A12F821101C4A52F8F5
:1018500021104840A060E068000E154911F82000F2
:10186000144951F82000E168C1F30741104A12F809
:101870002110114A52F821104840A189C1F30721D3
:101880000B4A12F821100D4A52F821104840217BD2
:10189000074A12F821100A4A52F821104840E06025
:1018A0006D1CD7F8F000A8423FF765AF002028E78D
:1018B000E8A00008E8A40008E8A80008E8AC0008D0
:1018C000E8B00008F0B503460C461546002603B103
:1018D00015B94FF0FF30F0BD802C07D0C02C05D0DB
:1018E000B4F5807F02D06FF00100F4E72946802C28
:1018F00003D10A20C5F8F00008E0C02C03D10C2069
:10190000C5F8F00002E00E20C5F8F00018780006D7
:101910005F7880EA07409F7880EA0720DF78784088
:10192000086018790706587987EA0047987987EAA6
:101930000020DF7978404860187A0706587A87EAED
:101940000047987A87EA0020DF7A78408860187B21
:101950000706587B87EA0047987B87EA0020DF7BF1
:101960007840C860802C37D135E0CA68864FC2F312
:10197000074C57F82C7007F07F4708687840824F73
:10198000C2F3072C57F82C7007F47F077840D7B2C2
:10199000DFF8F4C13CF8277007F47F477840170E52
:1019A0001CF827707840794F57F826707840086106
:1019B0000F694868784048614F6988687840886155
:1019C0008F69C8687840C861701C06460A2801D132
:1019D000002080E71031C8E7187C0706587C87EAAA
:1019E0000047987C87EA0020DF7C78400861187DFA
:1019F0000706587D87EA0047987D87EA0020DF7D4B
:101A000078404861C02C3FD13DE04A695E4FC2F347
:101A1000074C57F82C7007F07F47086878405A4FFA
:101A2000C2F3072C57F82C7007F47F077840D7B221
:101A3000DFF854C13CF8277007F47F477840170E51
:101A40001CF827707840514F57F82670784088610D
:101A50008F6948687840C861CF69886878400862B3
:101A60000F6AC86878404862701C0646082801D191
:101A7000002030E74F6A0869784088628F6A4869B9
:101A80007840C8621831C0E7187E0706587E87EA9A
:101A90000047987E87EA0020DF7E78408861187FC3
:101AA0000706587F87EA0047987F87EA0020DF7F94
:101AB0007840C861B4F5807F64D162E0CA69324F72
:101AC000C2F3074C57F82C7007F07F47086878403E
:101AD0002D4FC2F3072C57F82C7007F47F0778407E
:101AE000D7B2DFF8A4C03CF8277007F47F477840EE
:101AF000170E1CF827707840244F57F8267078404E
:101B000008620F6A4868784048624F6A886878407F
:101B100088628F6AC8687840C862701C06460728C9
:101B200001D10020D7E6CA6A170EDFF85CC05CF866
:101B3000277007F07F47086978406746C2F3074C73
:101B400057F82C7007F47F0778400F4FC2F3072C2B
:101B500037F82C7007F47F477840D7B2DFF828C0F9
:101B60001CF82770784008630F6B48697840486319
:101B70004F6B8869784088638F6BC8697840C86309
:101B800020319BE70020A6E6E8A00008E8B800089E
:101B900000BFFEE7704710B50446204604F0F4FA93
:101BA00010BD10B50446204604F018FB10BD0020FF
:101BB0007047024601207047F0B58FB004460E46CC
:101BC0000027002525461B20A870002068704FF4D0
:101BD0006050A880012028700020E870694601202C
:101BE00003F074FA2022114907A8FEF7CFFA102259
:101BF00003A80099FEF7CAFA0098016901914069AB
:101C00000290382201A904F10800FEF7BFFA38213A
:101C100005F1080004F06BFA0746380AA871EF7165
:101C20004020308000200FB0F0BD0000D013002015
:101C30002DE9F04106460C4617460025A8462546E4
:101C40000E20A8706E700020E870A8800120287017
:101C5000002105F1080004F04AFA80464FEA1820F6
:101C6000A87185F80780082038800020BDE8F08141
:101C70002DE9F04104460E460025002725460D209B
:101C8000A87000206870A880012028700020E870EB
:101C9000002105F1080004F02AFA0746380AA87165
:101CA000EF71082030800020BDE8F0812DE9F05F61
:101CB0000746884614469946DDE90AA60025AB4644
:101CC0002546AF7085F80180300240EA2620A880C2
:101CD000012028700020E8703146504604F007FAD1
:101CE00083464FEA1B20A87185F807B0324651465B
:101CF00004F10800FEF74AFA06F10800A9F800000E
:101D00000020BDE8F09F2DE9F047064689461446BD
:101D10009A464FF000080027AAF8007089F8008062
:101D20000EB9BDE8F0872546306888B100202880CC
:101D30004FF4C05068801822281D3168FEF726FA3B
:101D400008F1010000F0FF0807F11C00C7B2E51917
:101D5000706880B125464FF48070288080006880CC
:101D600070680068686008F1010000F0FF0807F182
:101D70000800C7B2E519AAF8007089F8008000BF12
:101D8000CFE7F0B503460825581900261680002431
:101D900024E006783602078846EA27263604360C01
:101DA00002D0012E06D102E0061D0E6002E0061DE3
:101DB0004E6000BF00BF86783602478846EA272675
:101DC000361D17883E44168086783602478846EAD4
:101DD0002726B7B2061DB819661CF4B2DE78A642F3
:101DE000D7DCF0BD04200B49C96811F0010F01D008
:101DF00001200EE00749C96811F0040F01D002204C
:101E000007E00449C96811F0100F01D0032000E079
:101E100004207047002002400549096821F01001A4
:101E2000034A1160114609680143116070470000C0
:101E30000020024078B506460C460425002000909C
:101E4000E80200F039F80546042D24D11348006952
:101E500040F00100114908613480E80200F02CF8DC
:101E60000546042D10D1B01C0090200C009908806C
:101E7000E80200F021F805460848006941F6FE71C5
:101E800008400649086106E00448006941F6FE7111
:101E9000084002490861284678BD00000020024041
:101EA00001460020034A106800F038000843106023
:101EB000704700000020024000B502460423FFF7EF
:101EC00091FF034603E0FFF78DFF0346521E012BEF
:101ED00001D1002AF7D102B90523184600BD000040
:101EE00008B541F28200ADF8000003208DF8020031
:101EF00010208DF803006946304800F065F84FF473
:101F000080512E4800F0EBF88020ADF8000003204F
:101F10008DF8020010208DF803006946284800F073
:101F200053F88021264800F0DAF818208DF80300D5
:101F30004FF48060ADF8000003208DF80200694680
:101F40001E4800F041F804208DF803004002ADF86F
:101F500000006946194800F037F84FF46040ADF8CA
:101F6000000003208DF8020018208DF80300694658
:101F7000124800F029F88020ADF8000003208DF809
:101F8000020010208DF8030069460E4800F01CF88E
:101F900080210C4800F0A3F880210A4800F09FF847
:101FA0004020ADF8000003208DF8020048208DF895
:101FB00003006946034800F007F808BD000C014023
:101FC00000080140001001402DE9F04102460025C3
:101FD0000026002000230024002791F803C00CF005
:101FE0000F0591F803C01CF0100F03D091F802C048
:101FF0004CEA050591F800C0BCF1000F31D014681F
:1020000000202BE04FF0010C0CFA00F3B1F800C0F7
:102010000CEA03069E4220D183004FF00F0C0CFA0D
:1020200003F7BC4305FA03FC4CEA040491F803C02F
:10203000BCF1280F06D14FF0010C0CFA00FCC2F8DD
:1020400014C00AE091F803C0BCF1480F05D14FF06D
:10205000010C0CFA00FCC2F810C0401C0828D1D3B7
:102060001460B1F800C0BCF1FF0F34DD54680020EB
:102070002EE000F1080C4FF0010808FA0CF3B1F85B
:1020800000C00CEA03069E4221D183004FF00F0CE2
:102090000CFA03F7BC4305FA03FC4CEA040491F87C
:1020A00003C0BCF1280F05D100F1080C08FA0CF8A8
:1020B000C2F8148091F803C0BCF1480F07D100F1B9
:1020C000080C4FF0010808FA0CF8C2F81080401C08
:1020D0000828CED35460BDE8F081416170470161AA
:1020E0007047000010B51249087804F047F928B18C
:1020F0000F49087804F042F9132814D1002341F65F
:1021000009620221032006F03FFE01280BD10320C3
:1021100007490860074808490860FF22042106486B
:102120000068FEF745F842F6E0600449086010BD1B
:1021300060000020B000002064000020A800002003
:1021400010B50024012007490861FFF7CBFF03F019
:1021500011FA01F045F9012004F044F903F060F9A7
:1021600010BD0000781300202DE9F84381460124BA
:1021700036A0006800903648D0F8BC0001281BD17A
:102180003348B0F82461D0F82001010E3048D0F86F
:10219000200100F47F0041EA10212D48B0F8200111
:1021A00000F47F4041EA0021294890F8200141EAEB
:1021B00000670097012507E042F28C366946244803
:1021C0008C30FFF7F6FC0546012D02D00120BDE85A
:1021D000F883FDF7C9FF1FFA80F8E0B204F0CEF8EB
:1021E00030B9E0B200234246012106F0CDFD05469C
:1021F000012D01D00120EAE7E0B204F0BFF8132876
:102200001DD106F0BFFE13490968401A0A2814D3ED
:10221000E0B23246694603F0EEFE06F0B3FE0D4929
:1022200008600D4882698069401C0B498861142A46
:1022300003D900210648C0F8BC100120C7E70648B2
:102240000461583002F0F0FF0120C0E77B39CEEB8B
:10225000C011002040000020781300200346002019
:10226000704701467047000010B504460622024937
:10227000204602F04BFF10BD600100200146002007
:102280007047000010B5094800680949884206D126
:102290004FF4967207490848FDF778FF04E00748B5
:1022A000C06F416B06A0884710BD0000D4FE03003C
:1022B00007320804D4FE0380C011002078130020E8
:1022C000010203046E6F20706172612C20757365CA
:1022D0002064656661756C740A0000007047000038
:1022E00010B500210348C0F8BC104FF4967100F0FF
:1022F00053F810BDC011002070B504460D462046AD
:10230000FEF7ADFB002070BD2DE9F04104460D46FF
:1023100016461F46E0B200233246294606F0B4FBBB
:10232000BDE8F081F8B504460E4617461D46E0B2FA
:1023300004F024F8222808D142F2F1100090E0B213
:102340003A4631466B6806F061FCF8BDF8B50646C2
:102350000F461446684602F029FA054695B90A4820
:102360009DF8001000EBC102304602F00FFA06495A
:102370009DF8002001EBC200394606F016FE9DF8DC
:10238000000020702846F8BD042E0020704710B5CC
:1023900001F0E8FA10BD000070B505460E460024B5
:1023A00000BF08E055F82410044A042303FB04206E
:1023B000FFF740FD641C4B2CF4D370BDD4FE0380AA
:1023C00000BFFEE710B5002002F064FC10BD10B5A0
:1023D000012002F05FFC10BD70B50446002571B607
:1023E000FFF7F0FFC4F3074000F011F8C4F3072033
:1023F00000F00DF804F0F80000F009F8002000F0FB
:1024000006F80546FFF7E3FF61B6284670BD10B534
:102410000446204601F0F8FE10BD70B504460D4696
:1024200071B6FFF7CFFFC4F30740FFF7F0FFC4F327
:102430000720FFF7ECFF04F0F801091DC8B2FFF711
:10244000E6FF2846FFF7E3FFFFF7C1FF61B670BD67
:1024500008B50121102001F0B1FA0420ADF8000008
:1024600003208DF8020010208DF803006946024811
:10247000FFF7AAFD08BD00000010014010B512488A
:1024800000F02CF8114800F029F8002010490860ED
:102490000871002410E0002004EB440101EB04115A
:1024A0000C4A02EB4111086004EB440101EB0411FA
:1024B00002EB41110871641C022CECD30020064988
:1024C0000860087110BD0000B4350020943A002067
:1024D000942E0020D43500205433002010B5002263
:1024E00000210CE000F1080343F83120002403EB45
:1024F000C1035C6000F1080303EBC102491C03291E
:10250000F0D300F118038360103B0360036843605D
:1025100010BD01460020D1E900239A4200D1704746
:102520000A68506800220B685A600A6812680A60DC
:1025300000BFF4E70246506800681368984201D172
:10254000012070475068416050680068506000206A
:10255000F7E72DE9F0410446884616462079012820
:1025600001D1BDE8F081207990BB042E09D232461A
:10257000414604F10800FDF709FE022020712660A3
:1025800024E0474638780002398840EA212080B2AA
:10259000051DB5F5167F04D90020207120600120AB
:1025A000DFE7B54209D82A46414604F10800FDF7A5
:1025B000EDFD01202071256008E03246414604F11E
:1025C0000800FDF7E3FD0320207126600020C8E726
:1025D000FFE72079032827D104F1080738780002A3
:1025E000398840EA212080B2051D20683044A84285
:1025F0000BD321686A1A0B46394658184146FDF735
:10260000C5FD0120207125600CE004F1080122685D
:10261000501832464146FDF7B9FD2068304420602D
:102620000320207100209CE7207902284CD12068EB
:10263000304404280DD204F10801226850183246B3
:102640004146FDF7A3FD2068304420600220207140
:1026500038E02168C1F104020B4604F10801581862
:102660004146FDF793FD04F10807387800023988E8
:1026700040EA212080B2051DB5F5167F04D900205F
:102680002071206001206CE720683044A8420CD300
:1026900021686A1A0B4604F1080158184146FDF7F3
:1026A00075FD0120207125600CE004F1080122680D
:1026B000501832464146FDF769FD0320207120681D
:1026C0003044206000204CE701204AE7F8B504467A
:1026D0000D462A4621461148FFF73BFF0646DEB964
:1026E0000E480079012817D16B460D4A0B490C3171
:1026F000081F01F04DFB0646BDF8002008490748B9
:102700000830FDF743FDBDF80000044908601EB91C
:102710000448FFF70FFF0646F8BD0000942E002086
:10272000B43A0020B43500202DE9FC410646374676
:1027300000241048FFF7EDFE04460CB9BDE8FC810B
:10274000208885B200208DF800000B493868C96FD9
:102750006B462A46D1F808C004F10801E047064854
:10276000C06F2946426B05A0904700202071206071
:1027700000BFE3E7943A002078130020010203042D
:1027800073656E642064617461206C656E203D2009
:1027900025640A0000BFFEE7704708B54FF4C0602B
:1027A00000F06AF827208DF8000000208DF8020064
:1027B00001208DF80300684600F024F81C208DF8F5
:1027C000000001208DF8010000208DF8020001209A
:1027D0008DF80300684600F015F81C208DF8000005
:1027E00001208DF8010000208DF8020001208DF8F5
:1027F0000300684600F006F800214FF0006000F08A
:1028000045F808BD70B5002100230F22C4780CB331
:10281000164C246804F4E064C4F5E064210AC1F1B4
:102820000403CA40447804FA03F184781440214335
:1028300009010F4C0678A155047804F01F05012406
:10284000AC4005786D114FF0E02606EB8505C5F824
:10285000004109E0047804F01F050124AC40054D57
:102860000678761145F8264070BD00000CED00E0BA
:1028700000E400E080E100E002490143024A116007
:10288000704700000000FA050CED00E0024A0A4023
:102890000243024B1A60704780FFFF1F08ED00E003
:1028A0002DE9F04104460D4616463146284603F010
:1028B0001EFC07466078217800EB01201FFA80F8A3
:1028C000474502D10020BDE8F0810448C06F3A4678
:1028D0004146436B02A098470120F4E7781300209B
:1028E00001020304437263206973206572726F7280
:1028F0002C2072656376203D2025642C2063616C5A
:1029000063203D2025640A0070B504460025A078A8
:10291000FF2800D070BDE06F016804F11000884707
:10292000054605B1F6E7032020700020607000BF67
:10293000F0E710B504460820207000206070FFF713
:102940009DFD052000F09AFF10BD00002DE9F0412B
:1029500006464B48D0F828014A4988420CD1072046
:10296000494908703079FF2802D0307901F044FFDE
:1029700000F09CFFBDE8F0814448FFF7CAFD054622
:1029800005B9F7E705F1080420790002A78840EAB5
:10299000272080B200F1080261783B48C06F436B8A
:1029A0003BA0984720790002A28840EA222080B20A
:1029B00000F10801204602F0FBFD20790002A18809
:1029C00040EA212082B204F10801A01DFFF768FF50
:1029D00001280CD16078022100F022FE60780022EC
:1029E000114600F039FE002028602871C2E7A07867
:1029F0001138142839D2DFE800F023242526270ACD
:102A00000F14191E38383838382D383228372946EF
:102A1000304600F0ABF82DE02946304600F0F0F8E3
:102A200028E02946304600F023F923E029463046C5
:102A300000F0BAF91EE02946304600F0B3F819E07C
:102A400000BF00BF00BF00BF00BF2946304600F0F6
:102A50005BF80FE02946304600F070FF0AE0294697
:102A6000304600F0ABFC05E004E02946304600F0BB
:102A70004BF800BF00BF00202860287100BF79E735
:102A8000C01100200732080478130020B43500205C
:102A9000010203046576656E742025642072656307
:102AA00076206C656E203D25640A0000F8B504466A
:102AB0000D46274613488079FF2814D0B878C828D7
:102AC00011DA1049887901F097FE0E48C668002097
:102AD00030603071FF200B498871002008726078E7
:102AE000022100F09DFD02208DF80200280240EA3C
:102AF000252080B2ADF800002146684600F038FE7F
:102B0000F8BD00007813002070B504460D4605F1AD
:102B10000806E06FA21D4FF47A71436A02209847BD
:102B200005F1080110482A68FDF730FB0E49083905
:102B300028680860012008710846E06000202072C3
:102B4000288881B2E06F8269304690476079FF281B
:102B500002D0607901F050FEE06F621D4EF66021F8
:102B6000436A0320984770BDFC30002070B50646CC
:102B70000C460748C06F416B06A0884704F1080562
:102B8000687800F057FC162000F078FE70BD000059
:102B900078130020010203044F74612042656769C5
:102BA0006E0A00002DE9F04104460D460F48C06F43
:102BB000416B0FA0884705F10806D4E91F20516931
:102BC00088470746012F05D170780022114600F092
:102BD00043FD08E0707800F02DFC1A2000F04EFE56
:102BE000E16F086A8047BDE8F0810000781300209B
:102BF000010203044F746120456E640A0000000066
:102C00002DE9F04105460E461348C06F416B13A0F5
:102C1000884706F1080707F1080400218420415184
:102C20006068000E616801F47F0140EA1120A1880C
:102C300001F47F4140EA0120217940EA0160C5F8B2
:102C40008000A17888204155E17885F8891078784E
:102C500000F0F0FBBDE8F0817813002001020304CE
:102C60004F74612046696C6520426567696E0A0091
:102C70002DE9F84F044689463248C06F416B32A0B7
:102C8000884709F1080505F1080628790002A98896
:102C900040EA212080B2071F3068000E316801F43D
:102CA0007F0140EA1120318801F47F4140EA012090
:102CB000317840EA016884200059404508D108EB8A
:102CC0000700D4F88010884202D8B7F5C07F12D927
:102CD0000097842002591B48D4F88030C06F4146C9
:102CE000D0F834C01DA0E04768780022114600F0FB
:102CF000B3FCBDE8F88FE06F3A4641460369301DEA
:102D0000984782460F48C06F3A464146436B1BA026
:102D10009847BAF1010F0AD10A48C06F416B1EA053
:102D2000884768780022114600F096FCE1E784208D
:102D30000059C11984200151687800F07BFB00BF65
:102D4000D7E7000078130020010203044F746120CC
:102D500046696C65204368756E6B0A0001020304C6
:102D600072656376206572726F722025642C25640B
:102D70002C25642C25642C0A0000000001020304A9
:102D80006F6666736574203D2025642C206C656E2B
:102D9000203D2025640A0000010203044F54412015
:102DA0004661696C0A00000070B506460C4605488D
:102DB000C06F416B04A0884704F10805687800F0F3
:102DC00039FB70BD78130020010203044F746120A9
:102DD00046696C6520456E640A00000070B50446C3
:102DE0001548FFF796FB054605B970BD05F10806C5
:102DF000B078242813D10620104908702079FF28C4
:102E000004D0207901F0F8FCFF2020714FF0FF3052
:102E100002F060F80948C06F416B09A088470020A4
:102E200028602871E06F621D4EF66021436A03201E
:102E3000984700BFD9E70000B43500207813002080
:102E4000010203047265637620756E62696E642008
:102E500072657370206F6B0A0000000010B50446A5
:102E60001648C4674FF0FF301449086142F28C31B4
:102E70001248C1820021017501214175881E0F4948
:102E8000C86142F2D9510D484184002180F82010D8
:102E9000012180F8211001F053FFFFF7EFFA01F054
:102EA0009FFC002005494870FF2088708871487198
:102EB000C8710120087001F02DFF10BD78130020AB
:102EC00070B506460C461248C06F416B11A088478A
:102ED00025460021842081516868000E696801F44C
:102EE0007F0140EA1120A98801F47F4140EA0120D6
:102EF000297940EA0160C6F88000A97888208155C8
:102F0000E97886F889100F2000F0B8FC70BD000049
:102F100078130020010203044F74612046696C6538
:102F200020426567696E0A002DE9FC5F04460D4684
:102F300016463C48C06F416B3BA08847374628790E
:102F40000002A98840EA212080B2A0F10408386874
:102F5000000E396801F47F0140EA1120398801F43C
:102F60007F4140EA0120397840EA01698420005914
:102F7000484508D109EB0800D4F88010884202D8EF
:102F8000B8F5C07F11D9CDF80080842002592548BA
:102F9000D4F88030C06F4946D0F834C027A0E0474D
:102FA000102000F06BFCBDE8FC9F28790002AA8885
:102FB00040EA222081B2384603F099F88246E87947
:102FC000A97900EB012081B2019101998A4503D0D2
:102FD000102000F053FCE6E7E06F424649460369E3
:102FE000381D984783460F48C06F42464946436B99
:102FF0001AA09847BBF1010F08D10A48C06F416B76
:103000001DA08847102000F039FCCCE7842000592F
:1030100000EB0801842001510F2000F02FFC00BFBD
:10302000C1E7000078130020010203044F746120FF
:1030300046696C65204368756E6B0A0001020304E3
:1030400072656376206572726F722025642C256428
:103050002C25642C25642C0A0000000001020304C6
:103060006F6666736574203D2025642C206C656E48
:10307000203D2025640A0000010203044F54412032
:103080004661696C0A00000070B504460E460A48A5
:10309000C06F416B09A08847D4E91F205169884758
:1030A0000546012D03D1102000F0E8FB02E00F20BF
:1030B00000F0E4FB70BD000078130020010203045F
:1030C0004F74612046696C6520456E640A000000FB
:1030D00070B504460E46A078FF2805D01748C06F8B
:1030E000416B17A0884770BDFFF7C8F9002013494E
:1030F0004870002508E0194810F83500012802D171
:10310000E8B201F079FB6D1C0A2DF4D301F068FBE5
:10311000FF200A4988708871487101200870E06FAB
:10312000A21C3146436A002098474FF0FF302061CF
:10313000002060700120207000BFD4E778130020C9
:1031400001020304616C7265616479207265636FCA
:103150006E6E6563746564200A000000041400202C
:103160002DE9FC4106464448FFF7D3F98046B8F103
:10317000000F01D1BDE8FC8108F1080404F1080743
:10318000A0780A2802D0A07821286ED120790002E8
:10319000A18840EA212082B23946A01DFFF780FBBA
:1031A000012803D13046FFF7C4FB5EE0F07801F060
:1031B00023FB202206F158013846FDF70BF80028C2
:1031C0004BD1A0780A281DD1102207F1200106F169
:1031D0002800FCF7DBFF102207F1200106F1480070
:1031E000FCF7D4FF102207F1200106F13800FCF7AC
:1031F000CDFF304600F0CAF92048C06F416B20A0D7
:10320000884732E004F10805286A000E296A01F4B3
:103210007F0140EA1120298C01F47F4140EA01201E
:1032200095F8201040EA0160019095F82400000212
:10323000A98C40EA212080B20090694601A802F0E2
:1032400035F93046FFF775FB0C48C06FBDF800201C
:10325000436B10A00199984707E03046FFF769FBE0
:103260000648C06F416B18A088470020C8F80000CE
:1032700088F8040000BF7DE7B435002078130020F3
:103280000102030452656376204D736732206F6B31
:103290000A00000001020304526563762041636363
:1032A00065737320506F696E74206F6B2C436C6F65
:1032B000756420416464723D25782C706F72743D92
:1032C0002578210A0000000001020304526563769C
:1032D000204D7367322072616E64206572726F7266
:1032E000200A00002DE9F04104462648FFF711F9B5
:1032F00006460EB9BDE8F08106F1080505F108079C
:10330000A8780C282CD128790002A98840EA21202D
:1033100082B23946A81DFFF7C3FA012803D120461F
:10332000FFF707FB1CE0E07801F066FA202204F1C9
:1033300058013846FCF74EFF50B90620207012485D
:10334000C06F416B11A08847042000F097FA07E096
:103350002046FFF7EEFA0C48C06F416B10A088477B
:103360000020306030716079FF2802D0607901F070
:1033700043FAE06F621D4EF66021436A03209847CE
:1033800000BFB7E7B4350020781300200102030422
:1033900072656376206D736734206F6B0A000000DE
:1033A0000102030452656376206D736734207261F5
:1033B0006E64206572726F72200A000070B5064656
:1033C0000C4604F1080501F0BBFC3046FFF7B1FAEA
:1033D0006878022100F024F9687800F02BF870BDBD
:1033E00010B5134C207808281FD2DFE800F0040540
:1033F000060A0E12161A18E017E02046FFF784FAA4
:1034000013E0204600F036F80FE02046FFF7A8FE54
:103410000BE02046FFF766FF07E02046FFF796FA2D
:1034200003E02046FFF7DAFC00BF00BF10BD00003C
:10343000781300201FB504460020009003AB0C4A0F
:10344000214601900F20FEF731FC02208DF80A0082
:10345000BDF80C000002BDF80C1040EA212080B23B
:10346000ADF80800024902A800F082F91FBD000073
:10347000B43A002030B593B00446A078FF2809D0B4
:103480002B48C06F416B2BA08847A07801F0B4F99E
:10349000FF20A07002A9012001F018FE202204F1F3
:1034A000580103A8FCF772FE10220BA80299FCF742
:1034B0006DFE029801690F9140691090382003A9B0
:1034C00012AB244ACDE9001001210920FEF7EEFBE2
:1034D00001208DF84600BDF848000002BDF84810F4
:1034E00040EA212080B2ADF844005A208DF8470010
:1034F000184911A800F03CF90546012D09D10C48E6
:10350000C06F416B14A088472046FFF712FA13B032
:1035100030BD0748C06F416B17A08847042020705A
:10352000E06FE21C1849436A0120984700BFEEE7AC
:1035300078130020010203046D7367312073746FE8
:10354000702075385265636F6E6E65637454696D73
:1035500065720A00B43A00200102030453656E64E8
:10356000204D736731206661696C20646973636FF5
:103570006E6E6563740A00000102030453656E6495
:10358000204D736731200A00C0D4010010B590B0FF
:10359000044602A9032001F099FD202204F15801FC
:1035A00004A8FCF7F3FD029800680C9000208DF849
:1035B000340000218DF835108DF836108DF8371055
:1035C00014208DF838000120134948702C2004A9DC
:1035D0000FAB124ACDE9001001210B20FEF766FB6C
:1035E00002208DF80E00BDF83C000002BDF83C1032
:1035F00040EA212080B2ADF80C00084903A800F091
:10360000B7F805202070E06FE21C42F21071436AA7
:103610000120984710B010BD78130020B43A002064
:103620007FB505460C46002000906A4602A9284650
:10363000FEF7FEFA8DF80640BDF800000002BDF866
:10364000001040EA212080B2ADF8040002A901A8D0
:1036500000F08EF87FBD00007FB504460D4616468B
:1036600003AB0C4A21461020CDE90056FEF71EFBA5
:1036700002208DF80A00BDF80C000002BDF80C1005
:1036800040EA212080B2ADF80800024902A800F00B
:103690006FF87FBDB43A00201FB500200090694646
:1036A00002A8FEF7E5FA02208DF80600BDF800003A
:1036B0000002BDF8001040EA212080B2ADF80400FD
:1036C00002A901A800F054F80448C06F034A521D33
:1036D0004EF66021436A032098471FBD78130020EF
:1036E00070B50446E56805F10806207A401C207292
:1036F00014482968C06F426B13A09047207A0428B1
:1037000011DDE568002028602871FF20A0710020ED
:10371000207270780221FFF783FF70780022114633
:10372000FFF79AFF0DE0288881B2E06F826905F10A
:1037300008009047E06FA21D4FF47A71436A02209F
:10374000984770BD781300200102030473656E640E
:10375000206D6F75646C652074696D656F75742C70
:103760002064617461206C656E203D2025640A0030
:103770002DE9FC4104460F4622781202238842EAD2
:10378000232291B2A0786A4600F0FCFC0646012E86
:1037900001D1BDE8FC8120780002218840EA212087
:1037A000001DBDF80010084480B20190BDF804006F
:1037B000B0F5167F01DD0120EBE7002556E005EBB3
:1037C000450000EB05102B4901EB40100079E8BBE8
:1037D00020780002218840EA2120BDF8001008442A
:1037E00080B2019005EB450000EB0510214A02EB89
:1037F000401000F10C0101AB3A46204600F0A4FB5A
:103800000646012E00D1C4E7BDF804000002BDF851
:10381000041040EA2120208005EB450000EB051054
:10382000144901EB401021688160BDF80400001DBF
:1038300005EB450101EB05110E4A02EB4111086051
:10384000012005EB450101EB051100E00DE002EB65
:103850004111087105EB450000EB051002EB40112A
:103860000548FEF767FE002093E76D1C022DA6D3E6
:1038700001208EE7D4350020943A00203EB504465E
:103880000020009002AB074A014601902046FEF757
:103890000DFA0548C06FBDF80810826901489047CD
:1038A0003EBD0000B43A00207813002010B586B069
:1038B0000020029000BF009002AB04AA01460190D4
:1038C0002420FEF7F3F902208DF80E00BDF8080061
:1038D0000002BDF8081040EA212080B2ADF80C00CB
:1038E00004A903A8FFF744FF0D48C06F416B0DA06A
:1038F0008847FCF739FC04460A20B4FBF0F100FBD2
:103900001140401C4FF47A7100FB01F40448C06F71
:10391000034A121D2146436A0520984706B010BD90
:10392000781300200102030453656E6420556E6213
:10393000696E64206D7367206F6B0A002DE9F0419A
:1039400007460D4605F1080404F10806304601F06B
:10395000FDFD60780221FFF763FE6078FFF76AFDE6
:10396000BDE8F08110B50B480078012811D1094855
:10397000C06F084AD21D4FF47A71436A04209847F9
:1039800000200449A1F878000220FFF777FF01F03A
:10399000D1F910BD781300207047000029B1064A04
:1039A000D2690243044BDA6104E0034AD2698243DC
:1039B000014BDA61704700000010024029B1064A4D
:1039C00092690243044B9A6104E0034A926982437C
:1039D000014B9A61704700000010024010B500F0E2
:1039E0003BF84FF4803000F0F9F800F055F9044648
:1039F000012C24D11020FEF70FFA0220FEF750FA16
:103A0000002000F0DFF8002000F01AF9A00200F01A
:103A10000BF94FF4E011200400F024F9012000F02C
:103A20001BF900BF392000F0A7F80028FAD00220C7
:103A300000F026F900BF00F0BDF80828FBD10121F5
:103A40000448FFF7ABFF012141F21D00FFF7B6FF6D
:103A500010BD0000014004000F48006840F0010064
:103A60000D490860084640680C4908400A4948600A
:103A7000084600680A490840074908600846006887
:103A800020F4802008600846406820F4FE0048606A
:103A90004FF41F0088607047001002400000FFF8DC
:103AA000FFFFF6FE30B500210022002400232D4D3B
:103AB0006D6805F00C0121B1042905D0082923D136
:103AC00005E0294D056022E0274D05601FE0254DEA
:103AD0006D6805F47012234D6D6805F4803402257D
:103AE00005EB92421CB9214D554305600BE01D4D7D
:103AF0006D6815F4003F03D01C4D5543056002E08E
:103B0000194D5543056002E0174D056000BF00BF29
:103B1000144D6D6805F0F0010909154D6B5C0568E1
:103B2000DD4045600F4D6D6805F4E061090A104DF8
:103B30006B5C4568DD4085600A4D6D6805F4605139
:103B4000C90A0B4D6B5C4568DD40C560054D6D686D
:103B500005F44041890B074D6B5CC568B5FBF3F577
:103B6000056130BD0010024000127A0000093D00DE
:103B7000490000205900002010B501460022002312
:103B800000204A11012A02D1094C236806E0022ACA
:103B900002D1074C236A01E0054C636A01F01F0261
:103BA000012494401C4201D0012000E0002010BDFF
:103BB000001002400248406800F00C00704700000E
:103BC0000010024001460020034A506820F0F00037
:103BD0000843506070470000001002401149096816
:103BE00021F480310F4A11601146096821F48021C7
:103BF0001160B0F5803F03D0B0F5802F0ED106E004
:103C00000849096841F48031064A116007E0054916
:103C1000096841F4A021034A116000E000BF00BF21
:103C2000704700000010024001460020034A50681F
:103C300020F4E0600843506070470000001002402C
:103C400001460020034A506820F4605040EAC10059
:103C5000506070470010024001490866704700003C
:103C60000000424202460020044B586820F47C10B9
:103C700042EA01031843014B5860704700100240AC
:103C800001460020034A506820F0030008435060BA
:103C9000704700000010024038B50020009000245A
:103CA000002500BF3120FFF767FF05460098401C44
:103CB00000900098B0F5A06F01D0002DF2D0312017
:103CC000FFF75AFF08B1012400E00024204638BD68
:103CD00010B580210748FEF700FA0220FDF761FFCA
:103CE00080210448FEF7FBF940F2DC50FDF753FF5A
:103CF00010BD0000001001402DE9F04786B082465B
:103D00000E4614461F4605940D4D6878012803D0D1
:103D1000012006B0BDE8F08705F1280805F1480943
:103D200005A810210B464246CDE90091CDE902607D
:103D300021465046FCF702FF059838800020E8E74E
:103D4000781300202DE9F04186B006460F469046D4
:103D50001C46208805900D4D6878012803D001206D
:103D600006B0BDE8F08105A9102205F13800134620
:103D70008DE84500039105F1280241463846FCF7DD
:103D8000FFFE059820800020EAE70000781300205D
:103D90002DE9F04704460F46164698464FF00109B4
:103DA0002548D0F8B40008B900250CE02248D0F826
:103DB000B400022806D1A078012801D1002502E034
:103DC000A57800E0A57825B1012D16D0022D2ED1C1
:103DD00020E020780002218840EA212082B2394682
:103DE0003046FCF7D3F94FF0000920780002218813
:103DF00040EA2120A8F8000019E02078000221887C
:103E000040EA212082B243463146384600F016F897
:103E100081460CE020780002218840EA212082B20D
:103E2000434631463846FFF767FF814600BF00BF73
:103E30004846BDE8F0870000C01100202DE9FF478B
:103E40008046894615461C463348C06F816B4FF447
:103E500078708847824602A9022001F037F950465F
:103E6000029900F025F9DAF80400A84232DA0020BD
:103E70002080002715E02088484408EB070303AAA8
:103E80000121CDE90005504604F084FC064606B148
:103E90000CE0BAF80400384487B22088039908443B
:103EA0002080DAF804003844A842E4DD00BFAF42C5
:103EB0001BDA2088484408EB070303AA0121CDE957
:103EC0000005504604F066FC064620880399084425
:103ED00020800AE0434603AA01215046CDE900951F
:103EE00004F058FC0646039820800B48C06F324609
:103EF000436B0AA003999847504604F005FC064816
:103F0000C06FC16B504688471EB1012004B0BDE8A8
:103F1000F0870020FAE70000781300200102030474
:103F20007273615F706B6373315F64656372797024
:103F300074203D2025642C207533325265745661FF
:103F40006C203D2025640A002DE9F04104460D4611
:103F500016461F464FF001081E48D0F8B40008B9B5
:103F60000020A070A07820B1012815D002282DD102
:103F70001FE020780002218840EA212082B23146E9
:103F80002846FCF703F94FF000082078000221884A
:103F900040EA2120388019E020780002218840EA98
:103FA000212082B23B463146284600F015F8804673
:103FB0000CE020780002218840EA212082B23B46B2
:103FC00031462846FFF7BEFE804600BF00BF404690
:103FD000BDE8F081C01100202DE9FC4781468A46EA
:103FE00017461C463148C06F816B4FF47870884784
:103FF000054601A9002001F069F82846019900F062
:10400000A5F807F10B006968814234DA00202080AE
:10401000002618E0208848440AEB060300906868F0
:10402000A0F10B020021284604F010FC8046B8F1F4
:10403000000F00D00CE02088A98808442080A888C0
:104040000B38304486B268680B383044B842E1DD42
:1040500000BFBE421ADA208848440AEB0603BA1BA6
:1040600000210090284604F0F1FB80462088A988B2
:10407000084420800AE053463A4600212846CDF8FD
:10408000009004F0E3FB8046A8882080284604F0D6
:104090003BFB0648C06FC16B28468847B8F1000F4C
:1040A00002D00120BDE8FC870020FBE77813002048
:1040B000F0B589B004460E4620A103C9CDE9070139
:1040C00000200346024601460090204604F04BFBC8
:1040D0002020606004F10800019004F588700290CF
:1040E000583003905830049058300590583006905E
:1040F000002700250DE007AB5A5DF11901AB53F81D
:10410000250004F0ACF807A8405D384487B2681C6D
:10411000C5B2062DEFDB04F5B87000904FF4B8700F
:104120000359001F02590748D4F86811C06FD0F82E
:1041300034C00548E04709B0F0BD00002010101061
:1041400010100000781300209490000838B5044641
:104150000D4600200346024601460090204604F02A
:1041600002FB20206060294604F10800626804F028
:1041700076F860684119032204F1600004F06FF8DA
:1041800038BD000070B504460025002010801D4891
:10419000D0F8B40008B900230BE01A48D0F8B400F6
:1041A000022805D1012C01D1002302E0234600E0C2
:1041B0002346012B12D0022B21D10846CE1701EB4A
:1041C00016763611A1EB0616B5B2002D03DDC5F14A
:1041D0001000108001E01020108010E00846CE177B
:1041E00001EBD6667611A1EB4616B5B2002D03DDC4
:1041F000C5F12000108001E00020108000BF00BF4A
:10420000002070BDC011002010B5044600BF02217F
:104210000A4800F021F80028F9D02146074800F0AC
:1042200027F800BF0121054800F016F80028F9D052
:10423000024800F01AF8C0B210BD0000003800407B
:1042400021B1028842F04002028004E002884FF669
:10425000BF731A40028070470246002013890B4248
:1042600001D0012000E00020704701468889704796
:104270008181704710B50022028802F441520B88F8
:104280004C8823438C882343CC8823430C892343C5
:104290004C8923438C892343CC8923431A430280CE
:1042A000838B4FF2FF74234083830B8A038210BDFC
:1042B000704710B500F002F810BD00000CB50020EA
:1042C000019000903248006840F480303049086026
:1042D00000BF2F48006800F4003000900198401C97
:1042E0000190009818B90198B0F5A06FF1D1284855
:1042F000006810F4003F02D00120009001E000208F
:1043000000900098012842D12248006840F0100037
:10431000204908600846006820F00300086008464D
:10432000006840F002000860194840681849486079
:104330000846406848600846406840F4806048602D
:104340000846406820F47C1048600846406840F405
:10435000E81048600846006840F08070086000BFC0
:104360000B48006810F0007FFAD00948406820F040
:104370000300074948600846406840F00200486072
:1043800000BF0348406800F00C000828F9D10CBDBC
:10439000001002400020024010B586B0002405E065
:1043A0005C48005D5C490855601CC4B2062CF7DB14
:1043B0005A48007858498871584841785648C17120
:1043C00056488178544801725448C1785248417225
:1043D0005348007850498873514841784E48C1731A
:1043E0004F4881784C4801744D48C1784A4841741F
:1043F0004C480078484988724A4841784648C1721A
:1044000048488178444801734648C178424841731E
:1044100004F09FFC40480A3004F0ADFC3E480E30EA
:1044200004F07AFC3C48801D04F09CFC3E48007877
:10443000394988753D4800783D4988703B48417846
:104440003B48C17039488178394801713748C17893
:104450003748417137480088354908804FF4FA6081
:1044600004F06AFC052004F05FFC3349334804F093
:10447000EDFC33A001F034F93DA001F031F946A084
:1044800001F02EF94EA001F02BF904A801F028FF4D
:104490009DF815009DF814109DF81320CDE900211A
:1044A00002909DF812309DF811209DF810104FA039
:1044B00001F016F904A801F01CFF9DF8130000900C
:1044C0009DF812309DF811209DF8101051A001F0B8
:1044D00007F904A801F016FF9DF8130000909DF85D
:1044E00012309DF811209DF810104FA001F0F8F83F
:1044F00004A801F0E5FE9DF8130000909DF812302D
:104500009DF811209DF810104CA001F0E9F806B0BC
:1045100010BD000001000020600100200700002005
:104520000B0000200F0000200000002023000020CE
:1045300032000020280000201B0000201300002073
:104540000D0A2D2D2D2D2D2D2D2D2D2D2D2D2D2DDE
:104550002D2D2D2D2D2D2D2D2D2D2D2D2D2D2D2D8B
:104560002D2D2D2D2D2D2D2D2D2D2D200D0A000025
:1045700057353530304530312D4D33202020202027
:10458000202020202020202020202020202020202B
:1045900020200D0A000000004E6574776F726B20BA
:1045A000436F6E66696775726174696F6E20496EDC
:1045B000666F726D6174696F6E200D0A00000000F5
:1045C0002D2D2D2D2D2D2D2D2D2D2D2D2D2D2D2D1B
:1045D0002D2D2D2D2D2D2D2D2D2D2D2D2D2D2D2D0B
:1045E0002D2D2D2D2D2D2D2D2D2000000D0A4D4171
:1045F00043203A20252E32582E252E32582E252E95
:1046000032582E252E32582E252E32582E252E3257
:10461000580000000D0A4950203A2025642E2564D8
:104620002E25642E256400000D0A534E203A2025C5
:10463000642E25642E25642E256400000D0A47573C
:10464000203A2025642E25642E25642E2564000042
:10465000042808D14FF0E021096941F004014FF02E
:10466000E022116107E04FF0E021096921F0040127
:104670004FF0E02211617047012808D14FF0E0218E
:10468000096941F001014FF0E02211610EE0811C47
:1046900008D14FF0E021096921F001014FF0E0223B
:1046A000116103E000214FF0E0229161704710B5E5
:1046B0000146002200230020CB10022B03D14FF033
:1046C000E024226902E04FF0E024E26901248C40FA
:1046D000144201D0012000E0002010BD704740B11D
:1046E0004FF0E021096941F002014FF0E022116131
:1046F00007E04FF0E021096921F002014FF0E022CC
:10470000116170474FF0E0214861704710B51348C0
:10471000006840F0010011490860084640681049EF
:1047200008400E494860084600680E4908400B4999
:1047300008600846006820F4802008600846406849
:1047400020F4FE0048604FF41F008860FFF7B1FDC1
:104750004FF000600449086010BD000000100240E6
:104760000000FFF8FFFFF6FE08ED00E010B50121A4
:10477000880700F0BCF8012805D10121800700F06E
:10478000A7F800F023F910BD7047000010B5012311
:10479000054C04F83130234603EBC103587023461F
:1047A00003EBC1035A6010BD04140020024600212F
:1047B00008E0064810F8310010B911700020704769
:1047C000481CC1B20A29F4DB0120F8E704140020D8
:1047D000024A12F830200A707047000004140020CA
:1047E000002004E00021034A02F83010401C0A288F
:1047F000F8D370470414002010B504460020044983
:1048000001F834000348C06F816A2046884710BD14
:10481000041400207813002010B504461B4800EB58
:10482000C400407806282FD2DFE800F0030E171BE3
:104830001E2B1748C06F416B16A08847FF201449F4
:104840008870022008701FE01148C06F416B1AA0E9
:1048500088470F48FEF76DF816E00D48FEF740FF59
:1048600012E0FEF719FF0FE00948C06F084AD21D99
:104870004FF47A71436A042098470220FEF7FEFF46
:1048800002E0FFF713F800BF00BF10BD04140020C2
:1048900078130020010203045043545F54494D45EE
:1048A000525F5245434F4E4E4543542054696D6507
:1048B000206F75740A000000010203044163636500
:1048C00073732054696D65206F75740A00000000D1
:1048D000CA430282704721B1028842F0010202807D
:1048E00004E002884FF6FE731A400280704730B52C
:1048F0000246002000230024158A05EA0103958959
:1049000005EA010413B10CB1012000E0002030BD24
:104910001AB183890B43838102E083898B438381AE
:104920007047018582827047002202881D4B9842A1
:104930000ED01D4B98420BD0B0F1804F08D01B4BCE
:10494000984205D01A4B984202D01A4B984204D193
:104950004FF68F731A404B881A43174B984207D073
:10496000164B984204D04FF6FF431A40CB881A43A7
:1049700002808B8883850B8803850A4B98420BD075
:10498000094B984208D00E4B984205D00D4B9842E7
:1049900002D00D4B984201D10B7A0386012383820A
:1049A00070470000002C014000340140000400402A
:1049B00000080040000C00400010004000140040BF
:1049C00000400140004401400048014002480068A6
:1049D000401C0149086070473C0000200EB54FF4B0
:1049E0007A70ADF804000020ADF80000ADF80600C4
:1049F000ADF8020069464FF08040FFF795FF0122B5
:104A000047219007FFF78DFF01218807FFF763FF1C
:104A1000012211469007FFF77BFF0EBD70477047DC
:104A200010B540F22551114800F06CF8E0B10022B9
:104A300040F225510D4800F08FF80C4800F01EF9A7
:104A4000C4B2772C04D104210948FDF746FB05E0E8
:104A5000882C03D104210648FDF741FB012240F2D6
:104A60002551024800F078F810BD000000480040D1
:104A7000001001401FB54FF4E13000900020ADF868
:104A80000400ADF80600ADF80800ADF80C000C20ED
:104A9000ADF80A006946094800F084F8012240F2A6
:104AA0002551064800F058F84021044800F008F865
:104AB0000121024800F00DF81FBD00000048004031
:104AC00001F40072B2F5007F00D100BFCA4302803A
:104AD000704721B1828942F40052828104E08289C8
:104AE0004DF6FF731A408281704702460020B1F5EF
:104AF000007F00D100BF13880B4201D0012000E0ED
:104B00000020704770B502460024002300250020D5
:104B1000A1F510666A3E00D100BFC1F3421501F055
:104B20001F03012606FA03F3012D02D196893340B3
:104B300006E0022D02D1168A334001E0968A334006
:104B40000C12012606FA04F41688344013B10CB195
:104B5000012000E0002070BDF0B5034600240026CF
:104B600000250020A1F510676A3F00D100BF18465C
:104B7000C1F3421401F01F06012707FA06F5012CC4
:104B800001D10C3004E0022C01D1103000E01430CF
:104B90001AB107682F43076002E00768AF43076058
:104BA000F0BD00002DE9F04786B005460E46002412
:104BB000A24600BFA1460027B08900B100BF2F4622
:104BC0002C8A4CF6FF700440F08804432C82AC8998
:104BD0004EF6F3100440B0883189084371890843C8
:104BE0000443AC81AC8A4FF6FF400440B0890443D3
:104BF000AC8201A8FEF756FF1F48874202D1DDF8BC
:104C000010A001E0DDF80CA0A88910F4004F08D036
:104C10000AEBCA0000EB0A1031684900B0FBF1F85A
:104C200007E00AEBCA0000EB0A1031688900B0FB0C
:104C3000F1F86420B8FBF0F004012009642101FBC5
:104C40001089A88910F4004F08D0322000EBC90069
:104C5000B0FBF1F000F00700044308E0322000EB65
:104C600009106421B0FBF1F000F00F0004432C8127
:104C700006B0BDE8F0870000003801400146888892
:104C8000C0F308007047C1F308028280704700BF7C
:104C9000FEE7000010B504462CB94FF480510548DA
:104CA000FDF71BFA05E0012C03D121030148FDF7B4
:104CB00016FA10BD000C014010B5FFF76DFB10BDDA
:104CC00000B585B00020ADF800004FF48270ADF85B
:104CD00002000020ADF80400ADF80600ADF80800B1
:104CE0004FF40070ADF80A000820ADF80C00002069
:104CF000ADF80E000720ADF8100069460448FFF734
:104D0000B9FA01210248FFF79BFA05B000BD000087
:104D1000003800400021064A1170002005E0012201
:104D20000349083141F82020401C0428F7D370477C
:104D30009811002001200149087070479811002047
:104D400010B516481649086001211548C0F8B4107E
:104D500000201349C1F8B00000211148C0F8B81074
:104D6000C0F8BC1042F28C31A0F8241114220DA11D
:104D70008C30FBF70BFA24220F4909486830FBF707
:104D800005FA10220D490648A030FBF7FFF94FF055
:104D9000FF3003494860C1F8280110BD07320804FC
:104DA000C01100206465766963652E61626C65637D
:104DB0006C6F75642E636E007000002094000020FC
:104DC00070B5044625466868000E696801F47F01E5
:104DD00040EA1120A98801F47F4140EA01202979A5
:104DE00040EA01613948C0F8B4102868000E29680B
:104DF00001F47F0140EA1120298801F47F4140EA53
:104E00000120297840EA01603049C1F8B000A86863
:104E1000000EA96801F47F0140EA1120298901F4FC
:104E20007F4140EA0120297A40EA01612748C0F821
:104E3000B810E868000EE96801F47F0140EA11202B
:104E4000A98901F47F4140EA0120297B40EA016100
:104E50001E48C0F8BC10286F000E296F01F47F01B6
:104E600040EA1120B5F8701001F47F4140EA0120BA
:104E700095F8701040EA01611448C0F8201142F220
:104E80008C31A0F82411402205F13001E030FBF70D
:104E90007DF9202205F110010C48C030FBF776F9AE
:104EA000142205F1740109488C30FBF76FF92422B4
:104EB00005F1880105486830FBF768F90448C06FC0
:104EC0004FF49671C26A0148904770BDC01100202E
:104ED0007813002010B504460548C0F8284105485D
:104EE000C06F4FF49671C26A0148904710BD000030
:104EF000C0110020781300202DE9F04104460D4632
:104F000000272E462F1D307810B1012827D122E02E
:104F10002078022808DB2078082805DA0420FEF72C
:104F2000ADFC0020BDE8F0812078082804D10520E0
:104F3000FEF7A4FC0020F5E70121384600F0D4FA82
:104F400002202070E079FF2804D0E079FFF754FCBC
:104F5000FF20E07104E0E16F086A804700E000BFD5
:104F600000BF0020DEE700002DE9F04F91B00446BD
:104F7000884691460020099008908346D8F804702E
:104F80003868000E396801F47F0140EA1120398841
:104F900001F47F4140EA0120397840EA016A0020AB
:104FA0000E90D8F800000D9000260DE0434850F810
:104FB000260040B94148103050F82600504502D133
:104FC0000120099002E0761C042EEFD300BF09985F
:104FD00018B9002011B0BDE8F08F08AB384AE11CC9
:104FE0000DA8FCF790FE20790002A18840EA21205C
:104FF000083885B2280240EA2520A080BDF820109C
:105000006A1A2F490839BDF82030194401F1080007
:105010004946FBF7BBF829462948001F01F067F80D
:1050200083464FEA1B20A07184F807B024480C384F
:1050300021684160616881600AA9042000F046F897
:105040004FF416701090102204A80A99FBF79EF8EE
:1050500010A91B480838102204ABCDE90032CDE975
:105060000201134605F108010A9AFBF789FD109821
:10507000C0F30720109940EA012080B2ADF83C004F
:1050800002208DF83E000E480C380F9901601098F0
:10509000001D0C49087001208DF82C000A48C06FD3
:1050A0000BABD0F808C00846027805490C395046C9
:1050B000E04700200349087000BF8BE7A0110020E3
:1050C000C03A0020A600002078130020052816D240
:1050D000DFE800F00306090D11000A4A0A600EE03D
:1050E000094A0A600BE0084A703A0A6007E0064A7B
:1050F00018320A6003E0034A38320A6000BF00BF7A
:1051000070470000281200205C130020F0B5034611
:105110000D462C4600211FE0267830090A2801DAC6
:10512000302600E03726064406F0FF0C0E464F1CE2
:10513000F9B203F806C0267806F00F000A2801DA53
:10514000302600E03726064406F0FF0C0E464F1CC2
:10515000F9B203F806C0641CB1EB420FDCDBF0BD12
:1051600010B51948194908601948486019488860FD
:105170001948C86019480861194888611948486287
:1051800019488862194848611948C8621948C861B5
:105190001948086319480862194888631948C863A0
:1051A000194848634FF47A70184908800748FDF79A
:1051B00055FE1748C06F416B16A08847002019495B
:1051C0000860486010BD000069210008542E0020CE
:1051D0007D22000809230008252300085D2200081D
:1051E000F92200084D2300088D23000863220008DF
:1051F00099230008E122000869220008DD22000846
:105200003566000871620008E1560008AC00002015
:1052100078130020010203044D5420496E69740A7A
:1052200000000000F440002070B5054600242DE089
:10523000FAF79AFFC1B21A2291FBF2F302FB1311A3
:10524000413105F82410C0F3072191FBF2F302FB72
:1052500013114131012202EB8402A954C0F307412A
:105260001A2291FBF2F302FB13114131022202EBED
:105270008402A954010E1A2291FBF2F302FB1311CE
:105280004131032202EB8402A954641C082CCFD3C1
:1052900070BD0000FEB505460F46002000900026B8
:1052A0003946284600F084F90FB90120FEBD2C468E
:1052B00020790002A18840EA212082B204F108018D
:1052C000A01DFDF7EDFA01280BD120790002A2887C
:1052D00040EA222081B204F1080000F069F90120BF
:1052E000E4E70020029001906A4601A92046FCF7FD
:1052F00048FDBDF80000204400F10806029830B1D6
:10530000324601A92046FFF72FFE0020CEE7A07805
:10531000172845D007DCB8B3062859D007280BD08A
:10532000082868D14FE018283FD0192843D02428F6
:1053300052D03F285FD159E037480078022808DB77
:1053400035480078082804DA0420FEF797FA002090
:10535000ACE731480078082804D10520FEF78EFA22
:105360000020A3E70021304600F0BEF802202A49C1
:1053700008700846C079FF2805D0C879FFF73CFAC5
:10538000FF202549C87143E0FFE70120FEF776FAC8
:1053900021480078022802DB0220FEF76FFA37E08E
:1053A00031461D48FDF78CFD32E0324621461A4851
:1053B000FDF7BAFD2CE031461748FDF765FE1A20CF
:1053C000FEF75CFA24E01449C96FC86980471FE002
:1053D0003046FFF7F5FC1BE01048FFF77BFD307807
:1053E00018B10D49C96FC869804711E031460A48B4
:1053F000FFF782FD0CE008480078062804D1394602
:105400002846FDF753FB02E00520FEF737FA00BF00
:1054100000BF00204AE7000078130020073208048C
:105420003EB51C480078062803D000201A490860C1
:105430003EBD19480068401C1749086008460068CE
:1054400016490968884223D902A91548FCF7B4FB1C
:105450001048B0F87800B0F5967F16DA00208DF885
:1054600000001048006801900A48C06F6B46BDF804
:1054700008200B49C4680C480068A0470548B0F8EC
:105480007800401C0349A1F8780000200249086018
:1054900000BFCDE77813002068000020A80000209E
:1054A000B43A0020640000206000002070B504467B
:1054B0000D460A480A49486001210948C0F8BC1055
:1054C0002168C0F820112988A0F824110548C06F70
:1054D0004FF49671C26A0248904770BD07320804C3
:1054E000C011002078130020FEB505460E462C465C
:1054F0007022211D1348FAF749FE86B1302210218F
:1055000010487030FAF754FE0F48C06F016B6846C0
:1055100088470C489DE80E0074300EC006E010224B
:1055200004F17C0107487030FAF730FE054870300E
:10553000616F0161A16F416170382168C0F8881006
:10554000FEBD0000EC1200207813002010B50446C8
:10555000102221460548FAF719FE0548C06F4FF49E
:105560009671C26A0148A038904710BD60120020B1
:105570007813002038B5002415E069462046FFF76F
:1055800027F99DF8000001280BD1084901EBC40060
:1055900003F0FEFC28B12046FFF72EF92046FFF766
:1055A0003BF9601CC4B20A2CE7DB38BD042E002096
:1055B000F8B505460E461B48D0F8B00000B9F8BD56
:1055C00006B9FCE71848C06F416B18A08847002453
:1055D0000DE0E01C285C0090A01C2B5C601C2A5C89
:1055E000295D1148C06F476B1EA0B847241D201DC0
:1055F000B042EED306E0295D0B48C06F426B23A09A
:105600009047641C701EA042F5D8295D0648C06F03
:10561000426B22A090470448C06F416B22A088478C
:1056200000BFCCE7C0110020781300200102030462
:105630002B2B2B2B2B2B2B2B2B2B2B2B2B2B2B2BBA
:105640002B2B2B2B2B2B2B2B2B2B2B2B2B2B2B2BAA
:105650002B2B2B2B2B2B2B2B2B2B2B2B2B2B2B2B9A
:105660000A000000010203043078253032782C2033
:105670003078253032782C203078253032782C2044
:105680003078253032782C0A000000000102030433
:105690003078253032782C2000000000010203040D
:1056A0003078253032780000010203040A2B2B2BBE
:1056B0002B2B2B2B2B2B2B2B2B2B2B2B2B2B2B2B3A
:1056C0002B2B2B2B2B2B2B2B2B2B2B2B2B2B2B2B2A
:1056D0002B2B2B2B2B2B2B2B2B2B2B2B2B0A000091
:1056E0000FB4054B10B503A9044A029800F0C6F8A0
:1056F00010BC5DF814FB00004D620008540100204E
:1057000002E008C8121F08C1002AFAD1704770478A
:10571000002001E001C1121F002AFBD170470000E8
:105720002DE9FF5FDDE90220010DDDF838B002430D
:1057300010D10F9801244CA2012808D00021009814
:105740000F9BC0E90021C0E90243BDE8FF9F6FEA5B
:105750000B01F4E7A1F2FF3144F6105041430D1460
:105760000F9801280ED0A5EB0B00401C4FF0000451
:105770003E4EDFF8FC90B0F1000AA04605DACAF10F
:10578000000717E0CBF10000F0E7074612E0F8074A
:1057900007D02246334640464946FAF716FE804671
:1057A00089462246334610461946FAF70EFE04464D
:1057B0000E467F10002FEAD1DDE90201BAF1000F99
:1057C00042464B4602DAFAF700FE01E0FAF76FFEB6
:1057D00004460E460022274BFAF7F0FE03D84FF09E
:1057E000FF30014607E00022234B20463146FAF7FE
:1057F00045FDFAF7CBFE102409E0002C0ADB0A2253
:105800000023FAF70AFD019B30321A55641E50EA54
:105810000102F2D1641C019AC4F1110314440F9ADD
:10582000012A09D00122084301D15B450FDD4FF069
:10583000000205F101050DE0084303D1A3EB0B05C0
:105840006D1E09E000204FF0110B0F9088E701DA80
:1058500000226D1E002A83D000980F99C0E9023102
:10586000C0E9004571E7000030000000000024405E
:105870000000F03F0000F0430000E03F2DE9FF4F43
:1058800095B09B4689460646002512E2252878D128
:105890000024761CF94A2746012105943378203BE1
:1058A00001FA03F0104202D00443761CF6E7307888
:1058B0002A2811D06FF02F033078A0F13002092A86
:1058C00016D8059A44F0020402EB820203EB42026E
:1058D0001044761C0590EFE759F8042B0592002A36
:1058E00003DA504244F40054059044F00204761C5C
:1058F00030782E2816D116F8010F44F004042A2817
:105900000DD06FF02F023078A0F13003092B09D8A9
:1059100007EB870302EB4303C718761CF3E759F83C
:10592000047B761C30786C280FD006DC4C2817D00E
:1059300068280DD06A2814D104E0742810D07A2881
:105940000FD10DE044F400140AE044F4801401E0A7
:1059500044F440147278824202D1761C04F580141B
:10596000761C307866280BD013DC582877D009DCF9
:10597000002875D04528F6D04628F4D047281AD1FB
:105980009FE118E0632835D0642879D0652812D1CA
:1059900097E1702873D008DC6728F1D069286FD0B0
:1059A0006E280DD06F2806D1B5E073282CD075284D
:1059B00075D0782874D05A46179990476D1C76E1B7
:1059C000C4F30250022809D003280DD0D9F80010E2
:1059D00004280DD00D6009F1040968E1D9F8001020
:1059E000EA17C1E90052F6E7D9F800100D80F2E796
:1059F0000D70F0E719F8041B8DF8001000208DF8E9
:105A00000100EA46012003E059F804AB4FF0FF30F3
:105A100061074FF0000102D40DE008F10101884652
:105A2000B9420FDA8045F8DB1AF808100029F4D1E2
:105A300008E008F1010188468142FADB1AF80810F3
:105A40000029F6D105985B46A0EB080721463846A9
:105A5000179A00F09EFA284400EB080507E04DE095
:105A60002BE10DE01AF8010B5A4617999047B8F14F
:105A70000108F7D25B4621463846179A14E142E006
:105A80000A220092C4F302524FF0000A022A08D000
:105A900059F804CB032A4FEAEC710AD00DE029E053
:105AA0002AE009F1070121F00702F2E802C191465C
:105AB00009E00FFA8CFC4FEAEC71042A03D14FFA8B
:105AC0008CFC4FEAEC71002907DA0A460021DCF170
:105AD000000C61EB02012D2202E0220504D52B22ED
